:02000000172ABD
:10000800FF00030E8301AE000A08AD008A017008E4
:10001800A0008B1C12280130A7008B100B1D2C2868
:100028000B118330810001302506F0007008A5000F
:10003800700803192C28A30A0319A40A0B302402F8
:10004800031D2828B8302302031C2C280130A600E1
:100058002008F0002D088A002E0E8300FF0E7F0E68
:0200680009008D
:10006A0083120313F101F2013B087202031D3F28B8
:10007A003A0871020318472800000000F10A031920
:06008A00F20A392808000B
:1000900083120313F801F9011030FC00710DF80D03
:1000A000F90D7408F8027508031C750FF90203189E
:1000B00060287408F80775080318750FF90703100E
:0A00C000F00DF10DFC0B4E280800B6
:1000CA0083120313B801B90137080605F000031DAE
:1000DA007D28B80A0319B90A3908753C031D77281F
:1000EA003808303C03187C28F001F101AA28692855
:1000FA008F018E0111309000B801B9013708060549
:10010A00F00003199928B80A0319B90A3908753C85
:10011A00031D91283808303C0318982810309000A5
:10012A00F001F101AA288328103090000F08F3008B
:10013A00F4017308F100F0010E08F0040030F10434
:0C014A003A30F4000030F50048200800B6
:0E015600831203133708950038089B00080039
:100164008312031388160A30BA000030BB0035200E
:0401740088120800E5
:100178008312031308170A30BA000030BB00352079
:040188000813080050
:10018C00BC200F30BA000030BB0035200230B70065
:04019C0065200800D2
:0E01A000831203132C088A002B08820008002B
:1001AE0083120313F101F20136087202031DE128D6
:1001BE00350871020318F528F301F40101307402B9
:1001CE00031DEB284D3073020318F128F30A0319AF
:0E01DE00F40AE528F10A0319F20ADB280800EA
:1001EC00B2200F30BA000030BB0035200830B70009
:0401FC006520080072
:10020000F030831203138805B701B801AB20080052
:10021000F030831203130805F000053070048800E5
:0C0220003230B7005530B800AB200800A9
:10022C00F030831203130805F000093070048800C5
:0C023C004630B7004630B800AB20080088
:10024800831203130608B100B10CB113B10CB1133A
:10025800B10CB113B10CB1130130B1050530F10087
:100268000608F000710803193D29F00CF013FF3E51
:1002780037290130F0057008B2007008031D5329B2
:100288003108031D5329F0300805F00005307004CB
:1002980088005530B7005530B800AB2082293108A6
:1002A800031965293208031D6529F0300805F00097
:1002B8000430700488003C30B7005030B800AB20E0
:1002C80082293208031977293108031D7729F0306C
:1002D8000805F0000130700488005030B7003C3049
:1002E800B800AB208229F0300805F0000130700416
:0E02F80088003C30B7005030B800AB20080042
:10030600C6207008B1007108B200F6207008B3006C
:100316007108B400F0300805F0000530700488005C
:100326003208003C031D99293108003C0318B02906
:1003360000303202031DA129193031020318B029F9
:1003460016215E30B5000130B600D720002164309A
:10035600B5000030B600D720CC2900303406031D86
:10036600B629003033060319C1293408003C031DA1
:10037600BE293308233C031CC129C7290821C830DC
:10038600B500B601D720CC295530B7005530B80096
:04039600AB20080090
:10039A004130831203139F001430BA000030BB00AF
:1003AA0035201F151F1DDA29D7291E08F300F4016D
:1003BA007308F100F00183161E08F0040030F104FE
:0203CA00080029
:1003CC000730831203139200F930831692000C301D
:0E03DC00831297000C309D0095019B010800D4
:1003EA00D0208A110A128000840AAB0A0319AC0AC7
:0803FA00F003031DF5290800C2
:1004020083120313B101783031020318162A07163A
:10041200D030BA000730BB00352007121230B500C9
:0C0422000030B600D720B10A042A080000
:10042E0083120313A101A201A301A401A501A60138
:10043E00A701A801A901AA018E3083169F00FF30E3
:10044E008500FF30860087018801890183128501AE
:10045E0086018701880189017F3083168105E62197
:10046E0010309000831601130B16C03081058114D5
:10047E008330831281008B168B172708031D492AA0
:10048E000021442AA301A401A501A6012608031DEB
:10049E00522A00214D2A2A080319942A2908031DDD
:1004AE00942A0608AF00AF0CAF13AF0CAF13AF0C0E
:1004BE00AF13AF0CAF130130AF050530F0000608D7
:1004CE00F100700803196F2AF10CF113FF3E692A2F
:1004DE00711C762A2F080319762A0130A8002808E5
:1004EE000319942A0021C830B500B601D720B001F7
:1004FE000330300203188F2A0816C830B500B60133
:10050E00D7200812C830B500B601D720B00A7F2A0E
:10051E0001220130A9000021922ACD217108023C4E
:10052E00031D9B2A7008003C0318A22A831208168A
:10053E000130A200AC2A8312081222080319AC2A39
:10054E00A2010130AA000130A10021080319B12A2D
:10055E008321522A22080319C02AF0300805F00020
:10056E000530700488004B30B7004B30B800AB201C
:08057E00522A2421522AC22A4C
:02400E004A2F37
:00000001FF
